:100000000C9428010C9459010C9459010C94590139
:100010000C9459010C9459010C9459010C945901F8
:100020000C9459010C9459010C9459010C945901E8
:100030000C9459010C9459010C9459010C945901D8
:100040000C9459010C9459010C9459010C945901C8
:100050000C9459010C9459010C9459010C9471039E
:100060000C9459010C9445040C941B040C945901F4
:100070000C9459010C9459010C9459010C94590198
:100080000C9459010C9459010C9459010C94590188
:100090000C94E5030C94BB030C9459010C94590186
:1000A0000C9459010C9459010C9459010C94590168
:1000B0000C9459010C9459010C9459010C94590158
:1000C0000C9459010C9459010C9459010C94590148
:1000D0000C9459010C9459010C9459010C94590138
:1000E0000C9459010C940B030C9461030C94FF01C4
:1000F0000C948E020C9441030C9410030C94530343
:100100000C9445030C945D030C94DD010C94F101F7
:100110000C9422030C9431030C947B040C94410244
:100120000C94A1010C943B030C942E030C944F03EC
:100130000C9457030C94CE010C942A030C9449039D
:100140000C9437030C94260300000A0B02090C0DD3
:100150000E0807030401000000000000000000007A
:10016000000000000000000000000000000000008F
:10017000000000001211100000000000000000004C
:10018000000000000000000000000000000000006F
:100190002200250028002B002E003100340002012F
:1001A0000000050108010B010000210024002700C8
:1001B0002A002D0030003300010100000401070176
:1001C0000A010505050507050808080802020202DC
:1001D0000A0A0808040404040101010101010101E3
:1001E0000303030303030303040707070C0C0C0CAE
:1001F0000C0C0C0C02020202060606060606060697
:100200000B0B0B0B0B0B0B0B010210202008081023
:100210002040102040800201020108040201010276
:10022000040810204080804020100804020180044F
:1002300002018040201008040201080402010102AA
:1002400004081020408001020408102040807B0434
:1002500011241FBECFEFD1E2DEBFCDBF00E00CBF47
:1002600024E0A2EDB2E001C01D92A038B207E1F790
:1002700012E0A0E0B2E0E2E5F1E100E00BBF02C075
:1002800007900D92A23DB107D9F711E0C8E2D1E085
:1002900000E006C021970109802FFE010E94890617
:1002A000C732D10780E00807A9F70E94CE040C945A
:1002B000A7080C940000FC01A089B18982E08C930E
:1002C000A485B5851C92A685B7858FEC8C93108E7E
:1002D000A489B58986E08C93A289B3898C918061C9
:1002E0008C93A289B3898C9188608C93A289B389FD
:1002F0008C9180688C930288F389E02D80818F7DBA
:100300008083089590E0FC01E85FFD4F24918E53B7
:100310009E4FFC018491882399F090E0880F991FEB
:10032000FC01E855FE4FA591B491FC01E257FE4F48
:10033000859194918FB7F894EC91E22BEC938FBF59
:100340000895AF92BF92CF92DF92EF92FF920F93F8
:100350001F93CF93DF936C017B018B01040F151F5B
:10036000EB015E01AE18BF08C017D10759F06991C3
:10037000D601ED91FC910190F081E02DC601199517
:10038000892B79F7C501DF91CF911F910F91FF90D4
:10039000EF90DF90CF90BF90AF900895FC01538D08
:1003A000448D252F30E0842F90E0821B930B54174F
:1003B00010F0CF96089501970895FC01918D828DDC
:1003C000981761F0A28DAE0FBF2FB11D5D968C9175
:1003D000928D9F5F9F73928F90E008958FEF9FEFB4
:1003E0000895FC01918D828D981731F0828DE80F70
:1003F000F11D858D90E008958FEF9FEF0895FC012A
:10040000918D228D892F90E0805C9F4F821B9109F6
:100410008F739927089582E493E00E94FF0121E001
:10042000892B09F420E0822F08958FED93E00E943C
:10043000FF0121E0892B09F420E0822F0895FC01BF
:10044000A48DA80FB92FB11DA35ABF4F2C91848D35
:1004500090E001968F739927848FA689B7892C9392
:10046000A089B1898C91837080648C93938D848DE5
:10047000981306C00288F389E02D80818F7D8083E8
:100480000895EF92FF920F931F93CF93DF93EC01A8
:1004900081E0888F9B8D8C8D98131AC0E889F9892B
:1004A000808185FF15C09FB7F894EE89FF8960832E
:1004B000E889F98980818370806480839FBF81E0AF
:1004C00090E0DF91CF911F910F91FF90EF900895F1
:1004D000F62E0B8D10E00F5F1F4F0F731127E02ECC
:1004E0008C8D8E110CC00FB607FCFACFE889F98904
:1004F000808185FFF5CFCE010E941F02F1CFEB8DE9
:10050000EC0FFD2FF11DE35AFF4FF0829FB7F894D7
:100510000B8FEA89FB8980818062CFCFCF93DF93F5
:10052000EC01888D8823B9F0AA89BB89E889F9890B
:100530008C9185FD03C0808186FD0DC00FB607FC40
:10054000F7CF8C9185FFF2CF808185FFEDCFCE0173
:100550000E941F02E9CFDF91CF91089580E090E0E3
:10056000892B29F00E94150281110E94000080E071
:1005700090E0892B29F00E940B0281110E9400005B
:1005800080E090E0892B49F080E090E0892B29F011
:100590000E94000081110E94000080E090E0892B01
:1005A00049F080E090E0892B29F00E940000811141
:1005B0000C9400000895282F30E0F901E85BFE4F0D
:1005C0009491F901E85FFD4F44912E533E4FF9019C
:1005D0002491222309F435C0992311F191509231CD
:1005E000F8F4E92FF0E08827E750FD4F8F4F0C9487
:1005F00089062A032E030B0322032603100331036B
:1006000037033B034103450349034F0353031003DF
:1006100057035D036103809180008F778093800092
:10062000E22FF0E0EE0FFF1FE257FE4FA591B491CD
:100630008FB7F894EC91611148C040954E234C93CC
:100640008FBF0895809180008F7DE8CF80918000DA
:10065000877FE4CF84B58F7784BDE2CF84B58F7D6B
:10066000FBCF8091B0008F778093B000D9CF80917D
:10067000B0008F7DF9CF809190008F7780939000AC
:10068000CFCF809190008F7DF9CF80919000877FB0
:10069000F5CF8091A0008F778093A000C1CF80918B
:1006A000A0008F7DF9CF8091A000877FF5CF80914A
:1006B00020018F7780932001B3CF809120018F7D1F
:1006C000F9CF80912001877FF5CF4E2BB8CFFB016A
:1006D00001900020E9F73197AF01461B570B0C94AE
:1006E000A1011F920F920FB60F9211242F933F93E7
:1006F0008F939F93AF93BF9380913E0390913F035D
:10070000A0914003B091410330913D0323E0230FBA
:100710002D3758F50196A11DB11D20933D038093FF
:100720003E0390933F03A0934003B0934103809115
:10073000390390913A03A0913B03B0913C03019699
:10074000A11DB11D8093390390933A03A0933B03FD
:10075000B0933C03BF91AF919F918F913F912F91A7
:100760000F900FBE0F901F90189526E8230F02964A
:10077000A11DB11DD2CF1F920F920FB60F9211245F
:100780000BB60F922F933F934F935F936F937F938B
:100790008F939F93AF93BF93EF93FF9382E493E084
:1007A0000E941F02FF91EF91BF91AF919F918F9196
:1007B0007F916F915F914F913F912F910F900BBE61
:1007C0000F900FBE0F901F9018951F920F920FB6AB
:1007D0000F9211240BB60F922F938F939F93EF9349
:1007E000FF93E0915203F09153038081E09158030D
:1007F000F091590382FD1DC0908180915B038F5F52
:100800008F7320915C03821741F0E0915B03F0E06D
:10081000EE5BFC4F958F80935B03FF91EF919F916F
:100820008F912F910F900BBE0F900FBE0F901F90C6
:1008300018958081F2CF1F920F920FB60F9211245C
:100840000BB60F922F933F934F935F936F937F93CA
:100850008F939F93AF93BF93EF93FF938FED93E0AD
:100860000E941F02FF91EF91BF91AF919F918F91D5
:100870007F916F915F914F913F912F910F900BBEA0
:100880000F900FBE0F901F9018951F920F920FB6EA
:100890000F9211240BB60F922F938F939F93EF9388
:1008A000FF93E091EF03F091F0038081E091F50375
:1008B000F091F60382FD1DC090818091F8038F5F57
:1008C0008F732091F903821741F0E091F803F0E073
:1008D000E152FC4F958F8093F803FF91EF919F9128
:1008E0008F912F910F900BBE0F900FBE0F901F9006
:1008F00018958081F2CFE2E4F3E01382128248EE91
:1009000053E060E070E044835583668377838AE038
:1009100092E0918380832DEC30E0358724872CECA6
:1009200030E03787268728EC30E0318B208B29ECAC
:1009300030E0338B228B2AEC30E0358B248B2EEC8D
:1009400030E0378B268B118E128E138E148EEFEDC6
:10095000F3E0138212824483558366837783918305
:10096000808385EC90E09587848784EC90E097877E
:10097000868780EC90E0918B808B81EC90E0938B6C
:10098000828B82EC90E0958B848B86EC90E0978B49
:10099000868B118E128E138E148E0895CF93DF9353
:1009A0001F921F92CDB7DEB7789484B5826084BD64
:1009B00084B5816084BD85B5826085BD85B5816063
:1009C00085BD80916E00816080936E0010928100E1
:1009D000809181008260809381008091810081609C
:1009E000809381008091800081608093800080915D
:1009F000B10084608093B1008091B00081608093E9
:100A0000B00080919100826080939100809191006C
:100A1000816080939100809190008160809390002C
:100A20008091A10082608093A1008091A1008160EB
:100A30008093A1008091A00081608093A0008091AC
:100A40002101826080932101809121018160809346
:100A500021018091200181608093200180917A00A2
:100A6000846080937A0080917A00826080937A001B
:100A700080917A00816080937A0080917A0080680A
:100A800080937A001092C1008FED93E00E945B0189
:100A900082E493E00E945B0187E00E94820188E08B
:100AA0000E9482018FEF80BB86E3E82E83E0F82E60
:100AB000CE0101964C018FED93E00E94FF011816C4
:100AC0001906A4F48FED93E00E94DD0180933803B2
:100AD0002091360330913703F901EE52FD4F8083A8
:100AE0002F5F3F4F309337032093360380913803B5
:100AF0008D30A9F568E172E082E493E00E9467031B
:100B000062ED72E082E493E00E94670365E272E0C6
:100B100082E493E00E9467038091D2028C3609F050
:100B200043C08091D502813339F58091D602853654
:100B3000C9F461E088E00E94DB0268E272E08FEDB8
:100B400093E00E946703E2EDF2E01192EE16FF06D9
:100B5000E1F71092370310923603109238030E9487
:100B6000AE02A9CF813609F08BC060E088E00E9418
:100B7000DB0267E472E0E3CF823309F081C0809149
:100B8000D602853639F461E087E00E94DB0264E634
:100B900072E0D5CF813609F073C060E087E00E9433
:100BA000DB0263E872E0CBCF843609F064C0809149
:100BB000D30289831A82F40101900020E9F7BF0172
:100BC0006819790990E080E00E94B6076C0160E046
:100BD00070E0CB01C114D10449F0F6011082B401D8
:100BE000C6010E94A008C6010E944D065B01C11407
:100BF000D10419F0C6010E942D07A114B10431F1EE
:100C0000F1E0AF16B10439F182E0A816B10429F180
:100C100093E0A916B10419F1E4E0AE16B10409F1AC
:100C2000F5E0AF16B104F9F086E0A816B104E9F0DA
:100C300097E0A916B104D9F0E8E0AE16B104C9F006
:100C4000F9E0AF16B10419F413E701C01EE711BBB8
:100C500060EA72E074CF10E3FACF1DE6F8CF19E72F
:100C6000F6CF13E3F4CF1BE5F2CF1FE5F0CF10E78B
:100C7000EECF1FE7ECCF8D3019F462E672E05FCF64
:100C800063EB72E08FED93E00E94670362ED72E028
:100C90008FED93E00E946703F0CF1F93FC0199272B
:100CA0008827BC01E89411911032E9F3193010F053
:100CB0001E30C8F31B3251F01D3249F4689406C04F
:100CC0000E947406610F711D811D911D11911053B9
:100CD0001A30B0F33EF490958095709561957F4FF2
:100CE0008F4F9F4F1F910895592F482F372F262F31
:100CF000660F771F881F991F660F771F881F991F20
:100D0000620F731F841F951F660F771F881F991F1F
:100D10000895EE0FFF1F881F8BBF0790F691E02DFF
:100D200019940F931F93CF93DF938230910510F4A2
:100D300082E090E0E0917E04F0917F0430E020E0DA
:100D4000B0E0A0E0309799F42115310509F44AC0CC
:100D5000281B390B24303105D8F58A819B81611518
:100D6000710589F1FB0193838283FE0111C04081EB
:100D700051810281138148175907E0F0481759073C
:100D800099F4109761F012960C93129713961C9396
:100D90003296CF01DF91CF911F910F91089500936B
:100DA0007E0410937F04F4CF2115310551F04217D2
:100DB000530738F0A901DB019A01BD01DF01F801F9
:100DC000C1CFEF01F9CF90937F0480937E04CDCF04
:100DD000FE01E20FF31F8193919322503109398371
:100DE0002883D7CF20917C0430917D04232B41F4BC
:100DF000209102023091030230937D0420937C0401
:100E000020910002309101022115310541F42DB7E6
:100E10003EB74091040250910502241B350BE0912E
:100E20007C04F0917D04E217F307A0F42E1B3F0B26
:100E30002817390778F0AC014E5F5F4F241735074C
:100E400048F04E0F5F1F50937D0440937C048193C4
:100E500091939FCFF0E0E0E09CCFCF93DF9300979A
:100E6000E9F0FC01329713821282A0917E04B091C6
:100E70007F04ED0130E020E01097A1F42081318162
:100E8000820F931F20917C0430917D04281739072D
:100E900009F061C0F0937D04E0937C04DF91CF9171
:100EA0000895EA01CE17DF07E8F54A815B819E01CC
:100EB00041155105B1F7E901FB83EA834991599145
:100EC000C40FD51FEC17FD0761F480819181029654
:100ED000840F951FE90199838883828193819B8385
:100EE0008A83F0E0E0E012968D919C911397009731
:100EF000B9F52D913C911197CD010296820F931F68
:100F000020917C0430917D042817390739F63097F9
:100F100051F510927F0410927E04B0937D04A0934B
:100F20007C04BCCFD383C28340815181840F951F41
:100F3000C817D90761F44E5F5F4F88819981480FC8
:100F4000591F518340838A819B819383828321151A
:100F5000310509F0B0CFF0937F04E0937E049ECF7B
:100F6000FD01DC01C0CF13821282D7CF4F925F9276
:100F70006F927F928F929F92AF92BF92CF92DF92A9
:100F8000EF92FF920F931F93CF93DF938C01009703
:100F900099F4CB01DF91CF911F910F91FF90EF90CA
:100FA000DF90CF90BF90AF909F908F907F906F9089
:100FB0005F904F900C949106FC01E60FF71F9C0187
:100FC00022503109E217F30708F4AEC0D901CD91E0
:100FD000DC911197C617D70720F1C530D10578F0FD
:100FE000CE0104978617970750F0C61BD70B2297A0
:100FF000C193D1936D937C93CF010E942D07C801BB
:10100000DF91CF911F910F91FF90EF90DF90CF90E4
:10101000BF90AF909F908F907F906F905F904F9018
:1010200008955B01AC1ABD0A4C018C0E9D1EA09167
:101030007E04B0917F04512C412CF12CE12C1097AF
:1010400031F580917C0490917D048815990509F013
:101050005CC04616570608F058C080910002909177
:101060000102009741F48DB79EB740910402509160
:101070000502841B950BE817F90708F055C0F0939B
:101080007D04E0937C04F90171836083B8CF8D9176
:101090009C91119712966C90129713967C901397CF
:1010A000A815B90559F56C0142E0C40ED11CCA144B
:1010B000DB0420F1AC014A195B09DA01129615979D
:1010C00080F06282738251834083D9016D937C9357
:1010D000E114F10471F0D7011396FC93EE9312978B
:1010E0008ECF22968C0F9D1FF90191838083F3018F
:1010F000EFCFF0937F04E0937E0481CF481659062A
:1011000008F42C017D01D3019ACFCB010E949106F6
:101110007C01009749F0AE01B8010E949708C80110
:101120000E942D0787016BCF10E000E068CFFB0124
:10113000DC0102C001900D9241505040D8F7089553
:10114000FB01DC0101900D920020E1F70895F89475
:02115000FFCFCF
:10115200000080048000000000004102A101CE01D5
:101162008E02FF01DD01F10150726F636573616EE2
:10117200646F3A20000D0A0041726475696E6F2037
:10118200646963653A204C6564203120656E63654D
:101192006E6469646F2D0041726475696E6F2064BC
:1011A2006963653A204C6564203120617061676132
:1011B200646F2D0041726475696E6F2064696365A6
:1011C2003A204C6564203220656E63656E64696402
:1011D2006F2D0041726475696E6F20646963653AB0
:1011E200204C65642032206170616761646F2D005C
:1011F200446973706C617920656E63656E646964BD
:101202006F2D0041726475696E6F206E6F20636F7F
:101212006E6F636520656C20636F6D616E646F3AFB
:021222002000AA
:00000001FF
